:020000040800F2
:1000000000080020B5010008751E00086D1E0008DC
:10001000711E0008BD020008052500080000000050
:10002000000000000000000000000000F9240008AB
:10003000D902000800000000791E0008FD24000815
:10004000CF010008CF010008CF010008CF01000850
:10005000CF010008CF010008CF010008CF01000840
:10006000CF010008CF010008CF010008CF01000830
:10007000CF010008CF010008C1020008CD0200082E
:10008000CF010008CF010008CF010008CF01000810
:10009000CF010008CF010008CF010008CF01000800
:1000A000CF010008CF010008CF010008CF010008F0
:1000B000CF010008CF010008CF010008CF010008E0
:1000C000CF010008CF010008CF0100087D1E000805
:1000D000891E0008CF010008CF010008CF010008E9
:1000E000CF010008CF010008CF01000800F002F89E
:1000F00000F050F814A696E8000CB244B344DA4578
:1001000001D100F047F8BAE80F000FA696E83000DA
:10011000A5EB040504EB0607AAEB0704A7F101070A
:100120004FEA15154FEA3414A4F10104AC4201D38F
:1001300000F030F813F0010F18BFFB1A43F0010371
:1001400000F001F8DBE71847B4250000D4250000D3
:10015000103A24BF78C878C1FAD8520724BF30C8F3
:1001600030C144BF04680C60704700007047000055
:100170000023002400250026103A28BF78C1FBD8B0
:10018000520728BF30C148BF0B6070471FB51FBD65
:1001900010B510BD00F058F81146FFF7F7FF02F058
:1001A000B3F900F076F803B4FFF7F2FF03BC00F0F8
:1001B0007DF800000948804709480047FEE7FEE750
:1001C000FEE7FEE7FEE7FEE7FEE7FEE7FEE7FEE707
:1001D00004480549054A064B704700000125000800
:1001E000ED000008000200200008002000040020AC
:1001F000000400204FF0000200B5134694469646D6
:10020000203922BFA0E80C50A0E80C50B1F1200129
:10021000BFF4F7AF090728BFA0E80C5048BF0CC0D7
:100220005DF804EB890028BF40F8042B08BF704735
:1002300048BF20F8022B11F0804F18BF00F8012BA7
:100240007047704770477047754600F02BF8AE4610
:1002500005006946534620F00700854618B020B5D2
:10026000FFF7B6FFBDE820404FF000064FF0000753
:100270004FF000084FF0000BAC46ACE8C009ACE80A
:10028000C009ACE8C009ACE8C00921F007018D46FF
:10029000704710B50446AFF300802046BDE810401B
:1002A000FFF781BF0048704738000020014918203F
:1002B000ABBEFEE72600020070470000FEE700002C
:1002C00040F2C000C2F2000000F06AB840F2041030
:1002D000C2F2000000F064B870470000EFF3108035
:1002E00072B600BFFEE7000090F82110022923D16A
:1002F000026840F2040C1168C4F2020C21F00E01F5
:10030000116013682F21C4F202018A4223F0010315
:10031000136015DD3023C4F202039A421CD044233B
:10032000C4F202039A421BD05823C4F202039A4239
:100330001CD14FF4803321E00421816301207047F8
:100340000823C4F202039A420ED01C23C4F2020313
:100350009A420BD1102311E04FF480730EE000BFDE
:100360004FF480530AE000BF012307E00CF168015D
:100370004FF080738A4208BF4FF480130121CCF8FC
:10038000003080F82110416B0022002980F82020E5
:1003900004BF0020704780B58847002080BD000062
:1003A00010B5D0E90FCE0168DCF800300A6823FAF6
:1003B0000EF35C072AD512F0040427D00A689206CF
:1003C00003D40A6822F004020A602F22C4F2020257
:1003D000914240F20402C4F202025BDD3023C4F217
:1003E0000203994272D04423C4F20203994273D0AB
:1003F0005823C4F20203994240F07A804FF48023DC
:100400001360C16A002940F098806FE09C0727D5EF
:1004100012F0020424D00A68920606D40A6822F078
:100420000A020A60012280F821202F22C4F202026F
:10043000914240F20402C4F202023BDD3023C4F2D6
:100440000203994260D04423C4F2020399425FD070
:100450005823C4F20203994260D14FF4003365E09F
:100460001B0743D512F0080208BF10BD0A6822F02E
:100470000E020A60012101FA0EF2CCF80420816319
:1004800080F82110016B0022002980F8202054D12F
:100490002CE000BF0823C4F20203994222D01C239F
:1004A000C4F20203994223D140231360C16A002998
:1004B00043D11BE00823C4F2020399422CD01C2331
:1004C000C4F20203994229D120232FE04FF4806324
:1004D0001360C16A89BB09E04FF480431360C16AAD
:1004E00059BB03E004231360C16A31BB10BD00BFD8
:1004F00002F168044FF08063A14208BF4FF480030B
:100500001360C16AC9B9F1E74FF400730EE000BF90
:100510004FF400530AE000BF022307E002F1680431
:100520004FF00073A14208BF4FF400131360816ABB
:100530000022002980F82020D8D0BDE810400847CC
:10054000014600284FF0010008BF70472DE9F04335
:10055000D1F800C04FF6F873CBF6FD734CF6CD42E0
:100560006344CCF6CC42A3FB02236FF0030202EA01
:1005700093020023C4F2020301F10C08C1E90F3217
:100580000222D1E9019E98E8F00181F82120DCF8EF
:10059000002043F6F0739A4342EA090242EA0E024F
:1005A00022432A4332433A4342EA0802CCF800206D
:1005B00000228A6381F8210081F820200020BDE814
:1005C000F043704790F820C0BCF1010F04BF022037
:1005D0007047F0B54FF0010E80F820E090F821C090
:1005E000BCF1010F26D14FF0020C80F821C04FF072
:1005F000000CC0F838C0D0E900C4C56AC66BDCF88E
:100600000070102C27F00107CCF80070006C0EFA77
:1006100000F070600846CCF8043004BF10460A466B
:10062000CCF80800CCF80C20DCF8000045B140F014
:100630000E000DE0002180F820100220F0BD00BF68
:1006400020F00400CCF80000DCF8000040F00A00C4
:10065000CCF80000DCF8000040F00100CCF800000D
:100660000020F0BDB0B5044600F01EF9054640F28A
:100670002800C2F200000078611C18BF044400BFCB
:1006800000F012F9401BA042FAD3B0BD2DE9F04FA3
:1006900082B00E68002E00F0FD8041F20042C4F2EC
:1006A0000102042340F2004E904208BF03234FF69C
:1006B000FF7CC4F2010E009300240123C1F2100C50
:1006C0004FF0000A4FF000094BE000BF41F200027A
:1006D000C4F20102009F904208BF022704F00C03FD
:1006E0000F229A402BEA020207FA03F34FEA9A0517
:1006F0001A4346F825204E6840F20C45F202DEF817
:10070000082054BF22EA080242EA0802C4F20105A6
:10071000CEF808202A68B30254BF22EA080242EA4F
:1007200008022A60B303DEF8042054BF22EA08025C
:1007300042EA0802F303CEF80420DEF800204FF06E
:10074000010354BF22EA080242EA0802CEF8002060
:100750000E680AF1010A36FA0AF204F1040400F004
:10076000998003FA0AFB16EA0B08F1D04E68664539
:1007700012DC122E56D8DFE806F0350B4D495555E0
:10078000555555555555555555555545510000BF6D
:10079000D1F80C9046E000BF4FF6FF72C1F2210283
:1007A00096420FDC0022C1F2110296421AD00022BA
:1007B000C1F21202964215D00022C1F221029642E5
:1007C00010D02FE00022C1F2220296420AD000226D
:1007D000C1F23102964205D00022C1F232029642A5
:1007E00020D100BF8A684AB1012A14BFC0F814B0F2
:1007F000C0F810B04FF0080914E000BF4FF0040932
:1008000010E000BFCA6802F104090BE04FF00009D4
:1008100008E000BFCA6802F1080903E0CA6802F1F3
:100820000C0900BF02462646B8F5807F24BF04327B
:10083000203E17680F25B54027EA050509FA06F698
:1008400035431560CA79D2067FF582AF41F21803AD
:10085000C4F202031A68AEF57E7642F001021A6015
:100860001A6802F001020192019A2AF0030256F876
:1008700002B040F60002C4F20102904208D040F6F5
:100880000042C4F2010290427FF420AF012725E725
:10089000002723E702B0BDE8F08F0000002A08BF60
:1008A000090401617047000040F2F810C2F2000034
:1008B0000068704740F2280040F2F811C2F20000D0
:1008C000C2F2000100780A68104408607047000016
:1008D00080B542F20000C4F20200016841F010014C
:1008E0000160032000F08CF80F2000F005F800F004
:1008F00027F8002080BD000070B540F22806C2F243
:10090000000640F230013278C2F200014FF47A73EF
:100910000968B3FBF2F20446B1FBF2F1084601F0BC
:100920008FFA0F2C4FF0010508D838B94FF0FF307F
:1009300021460022002500F037F87460284670BD7B
:1009400082B041F21800C4F202000168022241F0B4
:1009500001010160016801F0010101910199416803
:1009600041F080514160406800F080500090009854
:100970000420C4F20100016862F31A61016002B050
:1009800070470000002848BF704700F01F01012297
:1009900002FA01F11C2202EAD0004EF20012CEF25D
:1009A000000281507047000010B54EF60C5CCEF28C
:1009B000000CDCF80030C3F3022E8EF00704042C88
:1009C00028BF0424BEF103034FF0FF3E0EFA04F4E7
:1009D00038BF0023A14399400EFA03F39A43114311
:1009E00000F00F0200F160430901043A03F564438B
:1009F0006244002848BF02F10C03197010BD0000CA
:100A00004EF60C51CEF200010A684FF6FF031A4071
:100A100060F30A2242F0806040F0FD700860704789
:100A2000002804BF012070472DE9F04381B042F255
:100A30000008C4F202080446D8F800000D4600F091
:100A4000070088420CD2D8F8000020F007002843A5
:100A5000C8F80000D8F8000000F00700A8426CD1E8
:100A6000206841F204098107C4F2020917D5410741
:100A700005D5D9F8001041F4E061C9F8001001076C
:100A800005D5D9F8001041F46051C9F80010D9F823
:100A90000010A26821F0F0011143C9F80010C0074E
:100AA00042D1D8F8000000F00700A8420CD9D8F8CD
:100AB000000020F007002843C8F80000D8F8000024
:100AC00000F00700A84238D12068410707D5D9F8BF
:100AD0000010E26821F4E0611143C9F8001000073A
:100AE00008D5D9F80000216920F4605040EAC1001F
:100AF000C9F80000D9F8002002F00C00082841F2E3
:100B00000020C0F27A004DD142F2EC63C2F383417F
:100B1000C0F60003595CD20338D440F60010C0F28E
:100B20003D0048433EE000BF606859F8041C0228BD
:100B300008D0012826D1890306D4012001B0BDE8E0
:100B4000F08300BF8901F8D5D9F8001021F0030126
:100B50000843C9F80000FFF7A7FE064641F28837B0
:100B6000D9F80000616800F00C00B0EB810F98D05C
:100B7000FFF79AFE801BB842F2D9032001B0BDE80E
:100B8000F08300BF8907D8D5DEE700BFD9F8002081
:100B900042F2EA63C2F34042C0F600039A5C484363
:100BA000B0FBF2F0D9F8001042F2DA62C1F303119F
:100BB000C0F60002515C40F2300220FA01F140F22E
:100BC0002C00C2F200000068C2F200021160FFF7C0
:100BD00093FE002001B0BDE8F0830000002804BFB0
:100BE000012070472DE9F04182B00446007841F2BF
:100BF0000006C007C4F202060CD0706800F00C00BA
:100C0000042840F081803068800303D560680028A4
:100C100000F04681207880071BD5706810F00C0F1B
:100C200009D0706800F00C00082840F087807068D8
:100C3000C00300F183803068800703D52069012854
:100C400040F02E813068616920F0F80040EAC10070
:100C500030602078000713D4207840072CD4E56951
:100C6000002D00F01881706800F00C00082840F09A
:100C7000A780012D40F00481012002B0BDE8F08181
:100C8000A069002800F084800020C4F242200121E5
:100C9000C0F88014FFF708FE054600BF706A8007A1
:100CA00000F1B280FFF700FE401B0228F6D90320B6
:100CB00002B0BDE8F08100BFF0695FEAC00808D467
:100CC000F06940F08050F061F06900F080500090D1
:100CD000009847F20007C4F200073868C00549D4FD
:100CE000386840F480703860FFF7DEFD054600BFCD
:100CF0003868C0053ED4FFF7D7FD401B6428F7D9FC
:100D0000032002B0BDE8F081706800F00C000828F4
:100D100003D17068C0033FF576AF61683068002981
:100D200000F00C81B1F5A02F00F00081B1F5803FFB
:100D300040F01A8140F480301CE100BF2069002897
:100D400040F20000C4F2422000F0888001210160DE
:100D5000FFF7AAFD054600BF306880073FF572AF78
:100D6000FFF7A2FD401B0228F6D9032002B0BDE820
:100D7000F08100BFE168306A002900F09D800529FC
:100D800000F09280012940F0AF8040F00100B1E016
:100D90000020C4F242200021C0F88014FFF784FD37
:100DA000054600BF706A80077FF556AFFFF77CFDF0
:100DB000401B0228F6D9032002B0BDE8F08100BF35
:100DC0000027C4F2422700203866FFF76DFD022D90
:100DD00005460DD13068800140F1DE80FFF764FDEB
:100DE000401B02284FF00300F4D902B0BDE8F081A7
:100DF000306880014FD5FFF757FD401B02284FF0A8
:100E00000300F5D9F1E700BF40F23000C2F2000064
:100E1000006844F6D351C1F26201A0FB0101480A07
:100E2000019000BF00BF0198411E002801913FF4CE
:100E300013AF00BF0198411E002801913FF40CAF91
:100E400000BF0198411E002801913FF405AF00BF8B
:100E50000198411E00280191E4D1FDE600210160C6
:100E6000FFF722FD054600BF306880077FF5F1AE31
:100E7000FFF71AFD401B02284FF00300F4D9B4E736
:100E80007068216A00F480328A4209D1616A00F4F4
:100E90007010884204D1002002B0BDE8F08100BF8C
:100EA000012002B0BDE8F08140F004003062306AF9
:100EB00040F001001EE000BF20F001003062306A07
:100EC00020F004003062FFF7EFFC054641F288375E
:100ED000306A800720D5FFF7E7FC401BB8424FF08F
:100EE0000300F5D981E700BF20F001003062306ACD
:100EF00020F004003062FFF7D7FC054641F2883746
:100F0000306A800708D4FFF7CFFC401BB842F7D9FE
:100F1000032002B0BDE8F081B8F1000F3FF59FAEAD
:100F2000F06920F08050F06199E600BF40F4802025
:100F30003060306840F480301CE000BF20F4803026
:100F40003060306820F480203060FFF7ADFC05464B
:100F5000306880037FF55EAEFFF7A6FC401B642877
:100F60004FF00300F4D940E720F48030306030685F
:100F700020F480203060FFF797FC0546306880033E
:100F80003FF548AEFFF790FC401B6428F6D90320DC
:100F900002B0BDE8F08100BF206AB0F5803F05D106
:100FA0007168A26821F40031114371607168626A4E
:100FB00021F4741111430843706001203866FFF773
:100FC00073FC0446306880013FF565AFFFF76CFCA9
:100FD000001B02284FF00300F4D906E77047000019
:100FE000B0B584B001684A688B6803F04105012DF3
:100FF00008D112F0400505D0016C04B0BDE8B04046
:10100000084700BF9D0707D512F0800504D0416C4A
:1010100004B0BDE8B040084713F0600F18BF12F0ED
:10102000200501D104B0B0BD5D0618D590F851502F
:10103000032D09D100200290C868029088680290B0
:10104000029804B0B0BD00BF456D45F0040545658C
:1010500000250395CD6803958D680395039D9B0638
:101060000CD5436D43F001034365002301938B6866
:1010700001930B6823F040030B60019B436D002B31
:10108000D0D04B68920723F0E0034B604FF0010390
:1010900080F8513026D04A6842F2ED1422F0030263
:1010A0004A60C16CC0F6000459B1054608464C635D
:1010B000FFF71AF90146284619B1416D41F0400188
:1010C0004165816C0029ADD04C6304460846FFF7AA
:1010D0000BF90028A6D0606D40F04000606504B0B8
:1010E000B0BD00BF04B0BDE8B040FFF777BF00005F
:1010F00070B528B1416A29B100210161142106E0CF
:10110000012070BD4168B1F5827F02D01C21002210
:1011100042500026866290F8511029B980F850603C
:10112000054600F039F82846022180F8511090E871
:101130002E0002F482720C6803F4044324F040048D
:101140000C601A4405F4006305691A4405F00203B3
:1011500045691A4405F001038569C4691A4405F418
:1011600000731A4404F03803046A1A4404F080033C
:10117000846A1A4304F400531A430A60042202EA00
:1011800015424A60CA6922F40062CA6101214665BB
:1011900080F85110304670BD2DE9F04385B004460B
:1011A000006843F60001C4F200010027884204975A
:1011B000CDE90277019739D043F20001C4F2010171
:1011C000884240F0A08041F21800C4F20200016899
:1011D00040F6000441F4805101600168C4F201044A
:1011E00001F4805100910099016801AD41F00401C2
:1011F00001600068294600F0040000900098A020DB
:10120000019002200290032004902046FFF73EFA4E
:10121000402001900020CDE9020020462946FFF73A
:1012200035FA232001210022232467E041F218002F
:10123000C4F20200416801AE41F48041416041685E
:1012400040F2440801F48041009100990168C4F221
:10125000020841F0080101600068314600F0080012
:10126000009000984FF43040CDE9010740F60000AF
:10127000C4F2010000F5806528460397FFF706FADF
:101280004FF48040019002200290032004902846F1
:101290003146FFF7FBF940F2C005C2F20005802697
:1012A0004FF020092846C5E90087C5E90276C5E95F
:1012B0000477C5E90697FFF743F9002818BFFFF741
:1012C0000DF8E5646C6240F2041508F11400C2F2F6
:1012D00000051021002285E847002846C5E90422C0
:1012E000C5E90692FFF72CF9002818BFFEF7F6FFB4
:1012F000A5646C622420002100222424FFF754FB03
:101300002046FFF73FFB05B0BDE8F0832DE9F04133
:1013100082B0044690F85100012819D160681D463A
:1013200017460E46B0F5827F01D1A068A0B1FFF745
:10133000BBFA8046002E4FF0010018BF002F03D1EA
:1013400002B0BDE8F08100BF94F85000012811D12F
:10135000022002B0BDE8F081042084F8510020464C
:10136000314632463B46009500F004FB02B0BDE832
:10137000F08100BF012084F850000420002184F88F
:1013800051006165A663A787E7872163A186E1868F
:10139000A2682068B2F5004F2164616438D001680A
:1013A000490640D5E168E08F002944D000287BD071
:1013B000681C0CD11BE000BFC068A16B21F8020BB8
:1013C000A163E08F0138E087E08F00286CD02068AF
:1013D0008168C907F0D1FFF767FAA0EB0800A842BF
:1013E000F2D342E0FFF760FAE08F00285CD020687B
:1013F0008168C907F6D0C068A16B21F8020BA16310
:10140000E08F0138E087E08F0028F0D14CE000BF8A
:10141000016821F040010160016821F48041016010
:1014200001684906BED4016841F040010160E168ED
:10143000E08F0029BAD1B8B3681C0CD124E000BFFA
:10144000007BA16B0870A06B0130A063E08F0138B6
:10145000E087E08F40B320688168C907F0D1FFF7CB
:1014600023FAA0EB0800A842F3D3012084F851002E
:10147000002084F85000032002B0BDE8F08100BFD6
:10148000FFF712FAE08F78B120688168C907F7D0BA
:10149000007BA16B0870A06B0130A063E08F013866
:1014A000E087E08F0028EFD16068B0F5827F11D12E
:1014B000A068B0F5004F02D0B0F5806F0AD1216866
:1014C000B0F5806F0A6822F040020A6002D120461F
:1014D000012101E02046802100222B46CDF800802A
:1014E00000F07AFF28B1606D40F020006065202098
:1014F0006065012084F85100002084F85000606D80
:10150000002818BF012002B0BDE8F081B0B590F806
:101510005140012C1ED1D0F808C013460A46BCF138
:10152000000F0BD14168B1F5827F07D10424114629
:1015300080F85140BDE8B04000F086BB002A4FF073
:10154000010118BF002B01D10846B0BD90F8501022
:10155000012901D10220B0BD012180F850100421E1
:101560004FF0000E80F85110C0F854E0826383877A
:10157000C387C0E910EEA0F834E0A0F836E00168B7
:10158000BCF5004F07D10B6823F040030B600B68DC
:1015900023F480430B60D0F84CC042F2192342F28E
:1015A000292442F2F915C0F60003C0F60004C0F683
:1015B0000005CCE90A43CCE90C5EC38F04460C312C
:1015C0006046FEF7FFFF48B1606D40F010006065B7
:1015D000002084F850000120B0BD00BF20680168E1
:1015E000490603D4016841F040010160002184F8FC
:1015F0005010426842F020024260426842F001020C
:1016000042600846B0BD000090F85130012B1CBF6D
:1016100002207047B0B5D0F808E0BEF1000F49D104
:101620004368B3F5827F45D1042380F8513090F8A8
:101630005130042B01D0012B4BD100294FF0010375
:1016400018BF002A3CD084461CF8503F012B40D0E4
:10165000012380F8503090F8513041F6C56E042BCC
:101660001CBF052380F85130002343650163828647
:10167000C28681638287C287C26841F69563C0F6DD
:10168000000EC0F60003002A41F6F962016808BFA7
:10169000734641F6297EC0F60002C0F6000E08BF70
:1016A0007246C0E91032086840064FF0E0003FD5AE
:1016B00042E000BF00294FF0010318BF002A03D108
:1016C000BDE8B0401846704784461CF8503F012BD7
:1016D00004D10223BDE8B04018467047042380F8C7
:1016E00051300023436581638287C2870363838609
:1016F000C386C26842F25935016842F27934C0F6B5
:101700000005002AC0F6000408BF2546BEF5004FBC
:10171000C0E9105307D1086820F04000086008684D
:1017200020F480400860086840064FF0600003D451
:101730000A6842F040020A6000238CF800304A68D0
:1017400010434860BDE8B04018467047006843F653
:101750000001C4F20001884218BF704740F2A01097
:1017600040F29801C2F20000C2F200011422FFF719
:101770004BBF0000704700002DE9F04182B01D46CC
:1017800016460F460446FFF78FF894F851100129CA
:101790000ED18046002F4FF0010018BF002E03D15C
:1017A00002B0BDE8F08100BF94F85000012803D1D9
:1017B000022002B0BDE8F081012084F8500003202F
:1017C000002184F8510061652763A686E686A1633F
:1017D000A187E187A0682164B0F5004F20686164AB
:1017E00007D1016821F040010160016841F48041A6
:1017F00001600168490603D4016841F040010160BD
:101800006168731EE268B1FA81F1B3FA83F34909A2
:101810005B09B2F5006F41EA030139D131B137F804
:10182000021BC1602763E08E0138E086E08E00284D
:1018300070D0681C0BD11AE0216B31F8022BC2600A
:101840002163E08E0138E086E08E002862D02068B7
:1018500081688907F0D4FFF727F8A0EB0800A842B9
:10186000F2D338E0FFF720F8E08E002852D020684D
:1018700081688907F6D5216B31F8022BC26021639C
:10188000E08E0138E086E08E0028F0D142E000BF13
:1018900039B139780173206B01302063E08E013853
:1018A000E086E08EB0B3681C0BD123E0216B097891
:1018B0000173206B01302063E08E0138E086E08EFA
:1018C00040B3206881688907F0D4FEF7EDFFA0EBF4
:1018D0000800A842F3D3012084F85100002084F8C6
:1018E0005000032002B0BDE8F08100BFFEF7DCFF2E
:1018F000E08E78B1206881688907F7D5216B097877
:101900000173206B01302063E08E0138E086E08EA9
:101910000028EFD12046022101222B46CDF800807D
:1019200000F05AFD40B92046802100222B46CDF818
:10193000008000F051FD28B1606D40F0200060652E
:1019400020206065A06838B9002001902068C16837
:101950000191806801900198012084F851000020D5
:1019600084F85000606D002818BF012002B0BDE867
:10197000F08100002DE9F04383B01E4615460F4666
:101980000446FEF791FF94F851108146012909D1D0
:10199000002F4FF0010018BF002D0FD103B0BDE89C
:1019A000F08300BF6068B0F5827F0DD104294FF04D
:1019B0000200F3D1A1680029EAD0EFE7002EEDD0B4
:1019C00094F85000012803D1022003B0BDE8F08351
:1019D000012084F8500094F85100002104281CBF15
:1019E000052084F851006165A563E687A687276313
:1019F000E6862068A686216461640168490603D4EE
:101A0000016841F0400101606168731EE268B1FA4B
:101A100081F1B3FA83F3DDF8288049095B09B2F557
:101A2000006F41EA030165D131B137F8021BC16093
:101A30002763E08E0138E086012518F1010032D1DC
:101A400002E000BFFEF730FFE08E18B9E08F0028FB
:101A500000F0B8802068816889070CD5E18E51B10B
:101A6000012D08D1216B002531F8022BC2602163C2
:101A7000E18E0139E1868168C907E3D0E18F002951
:101A8000E0D0C068A16B012521F8020BA163E08FB3
:101A90000138E087D6E700BFFEF706FFA0EB09009C
:101AA000404580F0AF80E08E18B9E08F002800F04C
:101AB00089802068816889070CD5E18E51B1012D9C
:101AC00008D1216B002531F8022BC2602163E18E21
:101AD0000139E1868168C907DED0E18F0029DBD0BA
:101AE000C068A16B012521F8020BA163E08F0138CA
:101AF000E087D1E739B139780173206B0130206379
:101B0000E08E0138E086012518F1010032D101E0B4
:101B1000FEF7CAFEE08E10B9E08F002852D0206890
:101B2000816889070ED5E18E61B1012D0AD1216B43
:101B3000002509780173216B206801312163E18E52
:101B40000139E1868168C907E2D0E18F0029DFD041
:101B5000C068A16B01250870A06B0130A063E08F05
:101B60000138E087D4E700BFFEF79EFEA0EB090036
:101B7000404547D2E08E08B9E08F18B320688168ED
:101B800089070ED5E18E61B1012D0AD1216B0025A7
:101B900009780173216B206801312163E18E0139DD
:101BA000E1868168C907DFD0E18F0029DCD0C068F9
:101BB000A16B01250870A06B0130A063E08F013894
:101BC000E087D1E72046022101224346CDF800906C
:101BD00000F002FC40B92046802100224346CDF8A7
:101BE000009000F0F9FBB8B1606D40F02000606536
:101BF00020206065002084F85000012003B0BDE87B
:101C0000F08300BF012084F85100002084F85000C8
:101C1000032003B0BDE8F083A06838B9002002902B
:101C20002068C1680291806802900298012084F8BF
:101C30005100002084F85000606D002818BF01207A
:101C400003B0BDE8F083000070B590F85150012D4D
:101C500008D100294FF0010C18BF002A0ED16046B0
:101C600070BD00BF4468B4F5827F0DD1042D4FF0E4
:101C7000020CF4D18568002DEBD0F0E7002BEED0FC
:101C800090F85050012D01D1022070BD012580F83F
:101C9000505090F851500024042D1CBF052580F8A9
:101CA0005150446501638386C38682638387C387FB
:101CB000C0E9104490F8511042F2192342F2212653
:101CC000C0F60003C0F600060568D0F84CC0042931
:101CD00008BF1E4642F2292142F2D523C0F6000178
:101CE000C0F6000308BF0B4642F2F911C0F600012E
:101CF000CCE90A36CCE90C14C38F064605F10C0179
:101D00006046FEF75FFC38B1706D40F01000706502
:101D1000012086F8504070BD3568B06C696805F1E7
:101D20000C0241F001016960C0E90A44C0E90C44B9
:101D3000316BF38EFEF746FC40B1706D40F0100041
:101D40007065002086F85000012070BD306835466F
:101D50000168490603D4016841F0400101604FF079
:101D6000000C85F850C0416841F020014160416895
:101D700041F002014160604670BD000000294FF053
:101D8000010318BF002A01D11846704790F851305E
:101D9000012B03D190F85030012B01D10220704764
:101DA00010B5032380F85130002343650163828618
:101DB000C28683638387C387D0E902C242F2993423
:101DC000016842F2B93EC0F60004002AC0F6000ED7
:101DD00008BF7446BCF5004FC0E9103407D10A684B
:101DE00022F040020A600A6842F480420A600A68EF
:101DF000520603D40A6842F040020A6080F850306C
:101E0000486840F0A0004860BDE8104018467047A0
:101E1000006843F60001C4F20001884218BF704711
:101E200040F2481040F20001C2F20000C2F200018C
:101E30001422FFF7A3BF00007047000070470000A6
:101E4000411E0020B0EB116F1CBF012070474EF205
:101E50001002CEF2000251604EF62351CEF2000184
:101E6000F0230B700721906011607047FEE70000BF
:101E7000FEE70000FEE700007047000040F2481057
:101E8000C2F20000FFF7ACB840F2A010C2F20000AE
:101E9000FFF7A6B80168826BCB6822F8023B826329
:101EA000C28F013AC287C28F002A18BF70474A68A2
:101EB00022F040024A60C18E002908BF00F04EB8EF
:101EC000704700000168097B826B1170816B0131E2
:101ED0008163C18F0139C187C18F002918BF704745
:101EE00001684A6822F060024A60C18E002908BF7A
:101EF00000F034B870470000026B016832F8023B12
:101F0000CB600263C28E013AC286C28E002A18BF1D
:101F100070474A6822F080024A60C18F002908BFDA
:101F200000F01CB870470000016B0268097811735B
:101F3000016B01310163C18E0139C186C18E002957
:101F400018BF704701684A6822F080024A60C18F5A
:101F5000002908BF00F002B870470000B0B584B097
:101F600040F23001C2F20001096841F6F112C0F2FC
:101F70007652A1FB02120446500A642148430390A2
:101F8000FEF792FC216805464A6822F0200048606E
:101F90000398F8B1039801380390886880071DD42E
:101FA0000398B8B10398013803908868800715D466
:101FB000039878B1039801380390886880070DD49E
:101FC000039838B103980138039088688007DFD5FB
:101FD00004E000BF606D40F02000606520460221F3
:101FE00001226423009500F0F7F938B920468021DA
:101FF00000226423009500F0EFF938B1606D40F0E5
:1020000020006065606D40F020006065A06858B1F8
:10201000606DA0B10121204684F8511004B0BDE8E4
:10202000B040FEF7DBBF00BF002002902068C1680F
:102030000291806802900298606D0028EAD194F8BD
:10204000510001210428204684F8511004D104B025
:10205000BDE8B040FFF77ABB04B0BDE8B040FFF781
:10206000EBBE000010B582B004460068416821F064
:1020700060014160FEF718FC61688446B1F5827F1B
:1020800012D1A068B0F5004F02D0B0F5806F0BD12F
:102090002168B0F5806F0A6822F040020A6003D11F
:1020A0002046012102E000BF204680210022642357
:1020B000CDF800C000F090F938B1606D40F020001C
:1020C0006065606D40F020006065A06838B9002050
:1020D00001902068C16801918068019001980120F9
:1020E00084F85100606D28B1204602B0BDE8104070
:1020F000FEF774BF204602B0BDE81040FFF726BBD4
:10210000B0B584B040F23001C2F20001096841F676
:10211000F112C0F27652A1FB02120446500A642169
:1021200048430390FEF7C0FB0546039810B303989D
:102130000138039020688168890720D40398C8B1CA
:1021400003980138039020688168890717D40398A1
:1021500080B10398013803902068816889070ED404
:10216000039838B103980138039020688168890783
:10217000DBD504E02068616D41F0200161654168B4
:10218000012221F0A0014160204602216423009534
:1021900000F022F938B920468021002264230095FE
:1021A00000F01AF938B1606D40F020006065606D94
:1021B00040F020006065A06838B9002002902068D7
:1021C000C1680291806802900298012084F8510051
:1021D000606D28B1204604B0BDE8B040FEF7FEBEF9
:1021E000204604B0BDE8B040FFF712BE406A0021AF
:1021F000C187C186FEF7F2BE406A01684A6822F0D4
:1022000003024A60416D41F010014165012180F8EF
:102210005110FEF7E3BE0000406AFFF7ABBA0000C2
:10222000406AFFF70BBE0000B0B582B0446A0546B5
:10223000FEF73AFB29680968890645D48446206878
:10224000A168426822F02002426049B96268B2F592
:10225000827F05D1416821F00301416018E000BF91
:10226000426822F0010242606268B2F5827F0FD1BB
:10227000B1F5004F02D0B1F5806F09D10268B1F518
:10228000806F22F04002026002D12046012101E06D
:102290002046802100226423CDF800C000F09CF885
:1022A00028B1606D40F0200060652020606500204E
:1022B000E087012084F85100606D28B1204602B00B
:1022C000BDE8B040FEF78ABE204602B0BDE8B0408F
:1022D000FFF73CBAB0B582B0446A0546FEF7E4FAAF
:1022E00029680968890631D40546206801224168B9
:1022F000642321F02001416020460221009500F076
:102300006BF838B92046802100226423009500F044
:1023100063F838B1606D40F020006065606D40F09A
:10232000200060652068416821F0030141600020C1
:10233000E086E087012084F85100606D30B12046CE
:1023400002B0BDE8B040FEF749BE00BF204602B073
:10235000BDE8B040FFF770BD0168826BC96822F824
:10236000021B8263C18F0139C187C18F002918BF49
:102370007047FFF777BE00000168097B826B117020
:10238000816B01318163C18F0139C187C18F002900
:1023900018BF7047FFF766BE016B026831F8023B59
:1023A000D3600163C18E0139C186C18E002918BF77
:1023B0007047FFF7A5BE0000016B02680978117332
:1023C000016B01310163C18E0139C186C18E0029C3
:1023D00018BF7047FFF794BE2DE9F04381B0089C09
:1023E000984615460E468146FEF75EFA201A00EB27
:1023F0000804FEF759FA40F23001C2F20001096800
:10240000C1F3CB3161430091D9F800108A683240A2
:10241000921BB2FA82F25209AA423DD0074618F145
:10242000010031D0FEF740FAC01BA04238D200981C
:1024300000990028A1F101010091D9F800108968E4
:1024400008BF044601EA0600801BB0FA80F040098C
:10245000A842E7D120E000BF88683040801BB0FA76
:1024600080F04009A84217D088683040801BB0FA3D
:1024700080F04009A8420FD088683040801BB0FA35
:1024800080F04009A84207D088683040801BB0FA2D
:1024900080F04009A842DFD1002001B0BDE8F08300
:1024A000D9E900014268B1F5827F22F0E002426082
:1024B0000BD1D9F80810B1F5004F02D0B1F5806FFB
:1024C00003D1016821F040010160D9F82810B1F56D
:1024D000005F07D1016821F400510160016841F4F7
:1024E00000510160012089F85100002089F8500056
:1024F000032001B0BDE8F08370470000FEF7DAB9B1
:1025000070470000FEE7000090B0FEF7E1F906AC6E
:10251000201D2421FDF76EFE0220069001200A9066
:1025200010200B90002520460D95FEF757FB28B193
:10253000EFF3108072B600BFFEE700BF0F20CDE9B9
:10254000010501A80021CDE903550595FEF768FABC
:1025500020B1EFF3108072B6FEE700BF002541F214
:102560001807CDE90855CDE90655C4F202073868C9
:1025700040F6000840F0040038603868C4F20108F2
:1025800000F00400019001983868102140F0080024
:1025900038603868012200F0080001900198404638
:1025A00010260124FEF77AF90220099006A9404678
:1025B000CDE906640895FEF769F857F8040C002188
:1025C00040F0010047F8040C57F8040C002200F01A
:1025D0000100069006980E20FEF7E6F90E20FEF7A1
:1025E000D1F90F2000210022FEF7DEF90F20FEF7BF
:1025F000C9F940F24810C2F2000043F20001C4F2EF
:1026000001014FF40073C6610A264FF4827280E81C
:102610002600C0E90355C0E90553C0E90855C0E9E3
:102620000A56FEF765FD28B1EFF3108072B600BFC1
:10263000FEE700BF40F2A010A8F55041C2F2000032
:10264000C0E90015C0E90255C0E904558561C0E93B
:102650000855C0E90A56FEF74BFD28B1EFF310808C
:1026600072B600BFFEE700BF40F2A01540F2980826
:1026700040F61004C2F20005C2F20008C4F20104E0
:102680004FF48019284641461422C4F80090FEF702
:102690003DFF40F2481640F20007C2F20006C2F2C7
:1026A00000073046394614226423FFF765F81020EE
:1026B00020604FF47A70FDF7D5FF07F1140128462A
:1026C0001422C4F80090FFF759FB08F114013046BA
:1026D00014226423FEF71AFEFEE70000000000004B
:1026E00000000102030406070809010202030405B1
:1026F000060708090A0B0C0D0E0F10102027000802
:102700000000002038000000500100085827000891
:1027100038000020C8070000700100080000000019
:102720004D61737465722073656E64000000000073
:102730000000000066726F6D206D61737465720039
:102740000000000000000000010000001000000078
:0827500000127A0000000000F5
:04000005080000ED02
:00000001FF
