:020000040800F2
:1000000048070020B5010008551500084D150008E7
:1000100051150008BD020008D917000800000000B3
:10002000000000000000000000000000CD170008E4
:10003000C10200080000000059150008D11700088F
:10004000CF010008CF010008CF010008CF01000850
:10005000CF010008CF010008CF010008CF01000840
:10006000CF010008CF010008CF010008CF01000830
:10007000CF010008CF010008CF010008CF01000820
:10008000CF010008CF010008CF010008CF01000810
:10009000CF010008CF010008CF010008CF01000800
:1000A000CF010008CF010008CF010008CF010008F0
:1000B000CF010008CF010008CF010008CF010008E0
:1000C000CF010008CF010008CF0100085D1500082E
:1000D00069150008CF010008CF010008CF01000812
:1000E000CF010008CF010008CF01000800F002F89E
:1000F00000F050F814A696E8000CB244B344DA4578
:1001000001D100F047F8BAE80F000FA696E83000DA
:10011000A5EB040504EB0607AAEB0704A7F101070A
:100120004FEA15154FEA3414A4F10104AC4201D38F
:1001300000F030F813F0010F18BFFB1A43F0010371
:1001400000F001F8DBE71847181800003818000025
:10015000103A24BF78C878C1FAD8520724BF30C8F3
:1001600030C144BF04680C60704700007047000055
:100170000023002400250026103A28BF78C1FBD8B0
:10018000520728BF30C148BF0B6070471FB51FBD65
:1001900010B510BD00F058F81146FFF7F7FF01F059
:1001A0001DFB00F076F803B4FFF7F2FF03BC00F08C
:1001B0007DF800000948804709480047FEE7FEE750
:1001C000FEE7FEE7FEE7FEE7FEE7FEE7FEE7FEE707
:1001D00004480549054A064B70470000D51700083A
:1001E000ED000008480100204807002048030020D7
:1001F000480300204FF0000200B51346944696468F
:10020000203922BFA0E80C50A0E80C50B1F1200129
:10021000BFF4F7AF090728BFA0E80C5048BF0CC0D7
:100220005DF804EB890028BF40F8042B08BF704735
:1002300048BF20F8022B11F0804F18BF00F8012BA7
:100240007047704770477047754600F02BF8AE4610
:1002500005006946534620F00700854618B020B5D2
:10026000FFF7B6FFBDE820404FF000064FF0000753
:100270004FF000084FF0000BAC46ACE8C009ACE80A
:10028000C009ACE8C009ACE8C00921F007018D46FF
:10029000704710B50446AFF300802046BDE810401B
:1002A000FFF781BF00487047200000200149182057
:1002B000ABBEFEE72600020070470000FEE700002C
:1002C0007047000090F82110022923D1026840F203
:1002D000040C1168C4F2020C21F00E0111601368C5
:1002E0002F21C4F202018A4223F00103136015DDBD
:1002F0003023C4F202039A421CD04423C4F2020306
:100300009A421BD05823C4F202039A421CD14FF4E4
:10031000803321E004218163012070470823C4F267
:1003200002039A420ED01C23C4F202039A420BD15C
:10033000102311E04FF480730EE000BF4FF48053A0
:100340000AE000BF012307E00CF168014FF0807361
:100350008A4208BF4FF480130121CCF8003080F8A6
:100360002110416B0022002980F8202004BF0020CA
:10037000704780B58847002080BD00002DE9F04F10
:1003800082B00E68002E00F0FD8041F20042C4F2FF
:100390000102042340F2004E904208BF03234FF6AF
:1003A000FF7CC4F2010E009300240123C1F2100C63
:1003B0004FF0000A4FF000094BE000BF41F200028D
:1003C000C4F20102009F904208BF022704F00C0310
:1003D0000F229A402BEA020207FA03F34FEA9A052A
:1003E0001A4346F825204E6840F20C45F202DEF82A
:1003F000082054BF22EA080242EA0802C4F20105BA
:10040000CEF808202A68B30254BF22EA080242EA62
:1004100008022A60B303DEF8042054BF22EA08026F
:1004200042EA0802F303CEF80420DEF800204FF081
:10043000010354BF22EA080242EA0802CEF8002073
:100440000E680AF1010A36FA0AF204F1040400F017
:10045000998003FA0AFB16EA0B08F1D04E6866454C
:1004600012DC122E56D8DFE806F0350B4D495555F3
:10047000555555555555555555555545510000BF80
:10048000D1F80C9046E000BF4FF6FF72C1F2210296
:1004900096420FDC0022C1F2110296421AD00022CD
:1004A000C1F21202964215D00022C1F221029642F8
:1004B00010D02FE00022C1F2220296420AD0002280
:1004C000C1F23102964205D00022C1F232029642B8
:1004D00020D100BF8A684AB1012A14BFC0F814B005
:1004E000C0F810B04FF0080914E000BF4FF0040945
:1004F00010E000BFCA6802F104090BE04FF00009E8
:1005000008E000BFCA6802F1080903E0CA6802F106
:100510000C0900BF02462646B8F5807F24BF04328E
:10052000203E17680F25B54027EA050509FA06F6AB
:1005300035431560CA79D2067FF582AF41F21803C0
:10054000C4F202031A68AEF57E7642F001021A6028
:100550001A6802F001020192019A2AF0030256F889
:1005600002B040F60002C4F20102904208D040F608
:100570000042C4F2010290427FF420AF012725E738
:10058000002723E702B0BDE8F08F0000002A08BF73
:10059000090401617047000040F24410C2F20000FB
:1005A0000068704740F2000040F24411C2F20000BF
:1005B000C2F2000100780A68104408607047000029
:1005C00080B542F20000C4F20200016841F010015F
:1005D0000160032000F08CF80F2000F005F800F017
:1005E00027F8002080BD000070B540F20006C2F27E
:1005F000000640F208013278C2F200014FF47A732B
:100600000968B3FBF2F20446B1FBF2F1084600F0D0
:1006100087FF0F2C4FF0010508D838B94FF0FF3095
:1006200021460022002500F037F87460284670BD8E
:1006300082B041F21800C4F202000168022241F0C7
:1006400001010160016801F0010101910199416816
:1006500041F080514160406800F080500090009867
:100660000420C4F20100016862F31A61016002B063
:1006700070470000002848BF704700F01F010122AA
:1006800002FA01F11C2202EAD0004EF20012CEF270
:10069000000281507047000010B54EF60C5CCEF29F
:1006A000000CDCF80030C3F3022E8EF00704042C9B
:1006B00028BF0424BEF103034FF0FF3E0EFA04F4FA
:1006C00038BF0023A14399400EFA03F39A43114324
:1006D00000F00F0200F160430901043A03F564439E
:1006E0006244002848BF02F10C03197010BD0000DD
:1006F0004EF60C51CEF200010A684FF6FF031A4085
:1007000060F30A2242F0806040F0FD70086070479C
:10071000002804BF012070472DE9F04381B042F268
:100720000008C4F202080446D8F800000D4600F0A4
:10073000070088420CD2D8F8000020F007002843B8
:10074000C8F80000D8F8000000F00700A8426CD1FB
:10075000206841F204098107C4F2020917D5410754
:1007600005D5D9F8001041F4E061C9F8001001077F
:1007700005D5D9F8001041F46051C9F80010D9F836
:100780000010A26821F0F0011143C9F80010C00761
:1007900042D1D8F8000000F00700A8420CD9D8F8E0
:1007A000000020F007002843C8F80000D8F8000037
:1007B00000F00700A84238D12068410707D5D9F8D2
:1007C0000010E26821F4E0611143C9F8001000074D
:1007D00008D5D9F80000216920F4605040EAC10032
:1007E000C9F80000D9F8002002F00C00082841F2F6
:1007F0000020C0F27A004DD141F65013C2F383417C
:10080000C0F60003595CD20338D440F60010C0F2A1
:100810003D0048433EE000BF606859F8041C0228D0
:1008200008D0012826D1890306D4012001B0BDE8F3
:10083000F08300BF8901F8D5D9F8001021F0030139
:100840000843C9F80000FFF7A7FE064641F28837C3
:10085000D9F80000616800F00C00B0EB810F98D06F
:10086000FFF79AFE801BB842F2D9032001B0BDE821
:10087000F08300BF8907D8D5DEE700BFD9F8002094
:1008800041F64E13C2F34042C0F600039A5C48435F
:10089000B0FBF2F0D9F8001041F63E12C1F303119B
:1008A000C0F60002515C40F2080220FA01F140F269
:1008B0000400C2F200000068C2F200021160FFF7FB
:1008C00093FE002001B0BDE8F0830000002804BFC3
:1008D000012070472DE9F04182B00446007841F2D2
:1008E0000006C007C4F202060CD0706800F00C00CD
:1008F000042840F081803068800303D560680028B8
:1009000000F04681207880071BD5706810F00C0F2E
:1009100009D0706800F00C00082840F087807068EB
:10092000C00300F183803068800703D52069012867
:1009300040F02E813068616920F0F80040EAC10083
:1009400030602078000713D4207840072CD4E56964
:10095000002D00F01881706800F00C00082840F0AD
:10096000A780012D40F00481012002B0BDE8F08194
:10097000A069002800F084800020C4F242200121F8
:10098000C0F88014FFF708FE054600BF706A8007B4
:1009900000F1B280FFF700FE401B0228F6D90320C9
:1009A00002B0BDE8F08100BFF0695FEAC00808D47A
:1009B000F06940F08050F061F06900F080500090E4
:1009C000009847F20007C4F200073868C00549D410
:1009D000386840F480703860FFF7DEFD054600BFE0
:1009E0003868C0053ED4FFF7D7FD401B6428F7D90F
:1009F000032002B0BDE8F081706800F00C00082808
:100A000003D17068C0033FF576AF61683068002994
:100A100000F00C81B1F5A02F00F00081B1F5803F0E
:100A200040F01A8140F480301CE100BF20690028AA
:100A300040F20000C4F2422000F0888001210160F1
:100A4000FFF7AAFD054600BF306880073FF572AF8B
:100A5000FFF7A2FD401B0228F6D9032002B0BDE833
:100A6000F08100BFE168306A002900F09D8005290F
:100A700000F09280012940F0AF8040F00100B1E029
:100A80000020C4F242200021C0F88014FFF784FD4A
:100A9000054600BF706A80077FF556AFFFF77CFD03
:100AA000401B0228F6D9032002B0BDE8F08100BF48
:100AB0000027C4F2422700203866FFF76DFD022DA3
:100AC00005460DD13068800140F1DE80FFF764FDFE
:100AD000401B02284FF00300F4D902B0BDE8F081BA
:100AE000306880014FD5FFF757FD401B02284FF0BB
:100AF0000300F5D9F1E700BF40F20800C2F20000A0
:100B0000006844F6D351C1F26201A0FB0101480A1A
:100B1000019000BF00BF0198411E002801913FF4E1
:100B200013AF00BF0198411E002801913FF40CAFA4
:100B300000BF0198411E002801913FF405AF00BF9E
:100B40000198411E00280191E4D1FDE600210160D9
:100B5000FFF722FD054600BF306880077FF5F1AE44
:100B6000FFF71AFD401B02284FF00300F4D9B4E749
:100B70007068216A00F480328A4209D1616A00F407
:100B80007010884204D1002002B0BDE8F08100BF9F
:100B9000012002B0BDE8F08140F004003062306A0C
:100BA00040F001001EE000BF20F001003062306A1A
:100BB00020F004003062FFF7EFFC054641F2883771
:100BC000306A800720D5FFF7E7FC401BB8424FF0A2
:100BD0000300F5D981E700BF20F001003062306AE0
:100BE00020F004003062FFF7D7FC054641F2883759
:100BF000306A800708D4FFF7CFFC401BB842F7D912
:100C0000032002B0BDE8F081B8F1000F3FF59FAEC0
:100C1000F06920F08050F06199E600BF40F4802038
:100C20003060306840F480301CE000BF20F4803039
:100C30003060306820F480203060FFF7ADFC05465E
:100C4000306880037FF55EAEFFF7A6FC401B64288A
:100C50004FF00300F4D940E720F480303060306872
:100C600020F480203060FFF797FC05463068800351
:100C70003FF548AEFFF790FC401B6428F6D90320EF
:100C800002B0BDE8F08100BF206AB0F5803F05D119
:100C90007168A26821F40031114371607168626A61
:100CA00021F4741111430843706001203866FFF786
:100CB00073FC0446306880013FF565AFFFF76CFCBC
:100CC000001B02284FF00300F4D906E7704700002C
:100CD000B0B584B001684A688B6803F04105012D06
:100CE00008D112F0400505D0016C04B0BDE8B04059
:100CF000084700BF9D0707D512F0800504D0416C5E
:100D000004B0BDE8B040084713F0600F18BF12F000
:100D1000200501D104B0B0BD5D0618D590F8515042
:100D2000032D09D100200290C868029088680290C3
:100D3000029804B0B0BD00BF456D45F0040545659F
:100D400000250395CD6803958D680395039D9B064B
:100D50000CD5436D43F001034365002301938B6879
:100D600001930B6823F040030B60019B436D002B44
:100D7000D0D04B68920723F0E0034B604FF00103A3
:100D800080F8513026D04A6841F2616422F00302B3
:100D90004A60C16CC0F6000459B1054608464C6370
:100DA000FFF790FA0146284619B1416D41F0400124
:100DB0004165816C0029ADD04C6304460846FFF7BD
:100DC00081FA0028A6D0606D40F04000606504B054
:100DD000B0BD00BF04B0BDE8B040FFF777BF000072
:100DE00070B528B1416A29B100210161142106E0E2
:100DF000012070BD4168B1F5827F02D01C21002224
:100E000042500026866290F8511029B980F850604F
:100E1000054600F039F82846022180F8511090E884
:100E20002E0002F482720C6803F4044324F04004A0
:100E30000C601A4405F4006305691A4405F00203C6
:100E400045691A4405F001038569C4691A4405F42B
:100E500000731A4404F03803046A1A4404F080034F
:100E6000846A1A4304F400531A430A60042202EA13
:100E700015424A60CA6922F40062CA6101214665CE
:100E800080F85110304670BDB0B586B0006843F6AA
:100E90000002C4F20002002190420591CDE9031145
:100EA000029139D043F20001C4F2010188426DD1B0
:100EB00041F21800C4F20200016840F6000441F457
:100EC000805101600168C4F2010401F48051019174
:100ED0000199016802AD41F00401016000682946F2
:100EE00000F0040001900198A020029002200390DD
:100EF000032005902046FFF741FA40200290002091
:100F0000CDE9030020462946FFF738FA23200021C7
:100F10000022232435E000BF41F21800C4F2020091
:100F2000426802AD42F480424260426802F480426C
:100F30000192019A026842F008020260006800F023
:100F40000800019001984FF43040CDE9020140F6CD
:100F50000000C4F2010000F5806404912046294697
:100F6000FFF70CFA4FF48040029002200390032018
:100F7000059020462946FFF701FA2420012100228E
:100F80002424FFF789FB2046FFF774FB06B0B0BDB1
:100F90002DE9F04182B0044690F85100012819D1A2
:100FA00060681D4617460E46B0F5827F01D1A068E5
:100FB000A0B1FFF7F1FA8046002E4FF0010018BFF4
:100FC000002F03D102B0BDE8F08100BF94F85000BB
:100FD000012811D1022002B0BDE8F081042084F87C
:100FE00051002046314632463B46009500F0D0F88D
:100FF00002B0BDE8F08100BF012084F85000042059
:10100000002184F851006165A663A787E787216303
:10101000A186E186A2682068B2F5004F2164616470
:1010200038D00168490640D5E168E08F002944D0F6
:1010300000287BD0681C0CD11BE000BFC068A16BEE
:1010400021F8020BA163E08F0138E087E08F0028D0
:101050006CD020688168C907F0D1FFF79DFAA0EB3A
:101060000800A842F2D342E0FFF796FAE08F00288A
:101070005CD020688168C907F6D0C068A16B21F8F0
:10108000020BA163E08F0138E087E08F0028F0D1E8
:101090004CE000BF016821F040010160016821F4CB
:1010A0008041016001684906BED4016841F04001F9
:1010B0000160E168E08F0029BAD1B8B3681C0CD197
:1010C00024E000BF007BA16B0870A06B0130A0631F
:1010D000E08F0138E087E08F40B320688168C9075E
:1010E000F0D1FFF759FAA0EB0800A842F3D3012092
:1010F00084F85100002084F85000032002B0BDE8BD
:10110000F08100BFFFF748FAE08F78B1206881686E
:10111000C907F7D0007BA16B0870A06B0130A063FA
:10112000E08F0138E087E08F0028EFD16068B0F5EC
:10113000827F11D1A068B0F5004F02D0B0F5806F6A
:101140000AD12168B0F5806F0A6822F040020A6077
:1011500002D12046012101E02046802100222B46B9
:10116000CDF8008000F0A2FA28B1606D40F02000B8
:10117000606520206065012084F85100002084F81B
:101180005000606D002818BF012002B0BDE8F0815A
:101190002DE9F04383B01E4615460F460446FFF77F
:1011A000FBF994F851108146012909D1002F4FF025
:1011B000010018BF002D0FD103B0BDE8F08300BFC0
:1011C0006068B0F5827F0DD104294FF00200F3D1A1
:1011D000A1680029EAD0EFE7002EEDD094F8500086
:1011E000012803D1022003B0BDE8F083012084F878
:1011F000500094F85100002104281CBF052084F8F9
:1012000051006165A563E687A6872763E6862068A7
:10121000A686216461640168490603D4016841F02F
:10122000400101606168731EE268B1FA81F1B3FAAE
:1012300083F3DDF8288049095B09B2F5006F41EAC4
:10124000030165D131B137F8021BC1602763E08E1D
:101250000138E086012518F1010032D102E000BF1B
:10126000FFF79AF9E08E18B9E08F002800F0B880F7
:101270002068816889070CD5E18E51B1012D08D114
:10128000216B002531F8022BC2602163E18E013908
:10129000E1868168C907E3D0E18F0029E0D0C0680A
:1012A000A16B012521F8020BA163E08F0138E087D3
:1012B000D6E700BFFFF770F9A0EB0900404580F0CA
:1012C000AF80E08E18B9E08F002800F08980206898
:1012D000816889070CD5E18E51B1012D08D1216BB0
:1012E000002531F8022BC2602163E18E0139E186CD
:1012F0008168C907DED0E18F0029DBD0C068A16B0F
:10130000012521F8020BA163E08F0138E087D1E7C6
:1013100039B139780173206B01302063E08E0138D8
:10132000E086012518F1010032D101E0FFF734F920
:10133000E08E10B9E08F002852D0206881688907BC
:101340000ED5E18E61B1012D0AD1216B00250978FE
:101350000173216B206801312163E18E0139E1863F
:101360008168C907E2D0E18F0029DFD0C068A16B96
:1013700001250870A06B0130A063E08F0138E08781
:10138000D4E700BFFFF708F9A0EB0900404547D2BA
:10139000E08E08B9E08F18B32068816889070ED500
:1013A000E18E61B1012D0AD1216B0025097801730D
:1013B000216B206801312163E18E0139E18681686A
:1013C000C907DFD0E18F0029DCD0C068A16B0125FF
:1013D0000870A06B0130A063E08F0138E087D1E78F
:1013E0002046022101224346CDF8009000F05EF92C
:1013F00040B92046802100224346CDF8009000F0FD
:1014000055F9B8B1606D40F020006065202060653E
:10141000002084F85000012003B0BDE8F08300BF35
:10142000012084F85100002084F85000032003B00C
:10143000BDE8F083A06838B9002002902068C16838
:101440000291806802900298012084F851000020E7
:1014500084F85000606D002818BF012003B0BDE87B
:10146000F083000000294FF0010318BF002A01D1CA
:101470001846704790F85130012B03D190F8503046
:10148000012B01D10220704710B5032380F85130A1
:101490000023436501638286C28683638387C38793
:1014A000D0E902C241F26D64016841F28D6EC0F66E
:1014B0000004002AC0F6000E08BF7446BCF5004FB9
:1014C000C0E9103407D10A6822F040020A600A68B5
:1014D00042F480420A600A68520603D40A6842F065
:1014E00040020A6080F85030486840F0A000486030
:1014F000BDE8104018467047006843F60001C4F28A
:101500000001884218BF704740F2EC0040F20C0125
:10151000C2F20000C2F200011422FFF7A3BF0000D4
:10152000411E0020B0EB116F1CBF012070474EF22E
:101530001002CEF2000251604EF62351CEF20001AD
:10154000F0230B700721906011607047FEE70000E8
:10155000FEE70000FEE700007047000040F2EC00EC
:10156000C2F20000FFF7B4BB40F29400C2F20000E8
:10157000FFF7AEBBB0B584B040F20801C2F2000183
:10158000096841F6F112C0F27652A1FB021204463C
:10159000500A642148430390FEF7FEFF0546039876
:1015A00010B303980138039020688168890720D41C
:1015B0000398C8B1039801380390206881688907AF
:1015C00017D4039880B1039801380390206881688C
:1015D00089070ED4039838B1039801380390206826
:1015E00081688907DBD504E02068616D41F0200146
:1015F00061654168012221F0A0014160204602217D
:101600006423009500F052F838B92046802100226A
:101610006423009500F04AF838B1606D40F0200076
:101620006065606D40F020006065A06838B90020FA
:1016300002902068C168029180680290029801209F
:1016400084F85100606D28B1204604B0BDE8B04078
:10165000FFF73CBB204604B0BDE8B040FFF74CBFED
:10166000406A0021C187C186FFF730BB016B026869
:1016700031F8023BD3600163C18E0139C186C18E4E
:10168000002918BF7047FFF775BF0000016B0268A3
:1016900009781173016B01310163C18E0139C18673
:1016A000C18E002918BF7047FFF764BF2DE9F043D2
:1016B00081B0089C984615460E468146FEF76CFFA1
:1016C000201A00EB0804FEF767FF40F20801C2F29F
:1016D00000010968C1F3CB3161430091D9F80010D2
:1016E0008A683240921BB2FA82F25209AA423DD075
:1016F000074618F1010031D0FEF74EFFC01BA04293
:1017000038D2009800990028A1F101010091D9F880
:101710000010896808BF044601EA0600801BB0FA81
:1017200080F04009A842E7D120E000BF886830403F
:10173000801BB0FA80F04009A84217D0886830407A
:10174000801BB0FA80F04009A8420FD08868304072
:10175000801BB0FA80F04009A84207D0886830406A
:10176000801BB0FA80F04009A842DFD1002001B010
:10177000BDE8F083D9E900014268B1F5827F22F02B
:10178000E00242600BD1D9F80810B1F5004F02D049
:10179000B1F5806F03D1016821F040010160D9F8F3
:1017A0002810B1F5005F07D1016821F400510160F4
:1017B000016841F400510160012089F851000020C6
:1017C00089F85000032001B0BDE8F08370470000A5
:1017D000FEF7E8BE70470000FEE7000090B0FEF79D
:1017E000EFFE06AC201D2421FEF704FD022006902A
:1017F00001200A9010200B90002520460D95FFF740
:1018000065F828B1EFF3108072B600BFFEE700BFA5
:101810000F20CDE9010501A80021CDE9035505956B
:10182000FEF776FF20B1EFF3108072B6FEE700BF3F
:10183000002541F21800CDE90855CDE90655C4F25E
:101840000200016840F6000441F0040101600168F3
:10185000C4F2010401F0040101910199016801221F
:1018600041F0080101600068102100F008000190BB
:101870000198204610260127FEF788FE02200990D5
:1018800006A92046CDE906670895FEF777FD40F2E8
:10189000EC00C2F2000043F20001C4F201014FF477
:1018A0000073C6610A264FF4827280E82600C0E900
:1018B0000355C0E90553C0E90855C0E90A56FFF7CA
:1018C0008FFA28B1EFF3108072B600BFFEE700BFB9
:1018D000A4F5504140F28004C2F20004204640F8D2
:1018E000141FC0E90155C0E90355C0E90555C0E919
:1018F0000855C0E90A56FFF773FA28B1EFF31080D4
:1019000072B600BFFEE700BF40F61000C4F201004F
:101910004FF48011016040F2EC0040F20C01C2F281
:101920000000C2F200011422FFF79CFD04F1140034
:10193000214614226423FFF72BFB00BFFEE70000C3
:10194000000000000000010203040607080901026C
:1019500002030405060708090A0B0C0D0E0F1010F0
:10196000801900080000002020000000500100083D
:10197000A0190008200000202807000070010008BE
:10198000010000001000000000127A004D61737425
:1019900065722073656E64000000000000000000A6
:04000005080000ED02
:00000001FF
