:020000040800F2
:1000000078070020B50100088D130008851300084B
:1000100089130008BD0200088517000800000000D1
:100020000000000000000000000000007917000838
:10003000D902000800000000911300087D17000895
:10004000CF010008CF010008CF010008CF01000850
:10005000CF010008CF010008CF010008CF01000840
:10006000CF010008CF010008CF010008CF01000830
:10007000C1020008CD020008CF010008CF0100082E
:10008000CF010008CF010008CF010008CF01000810
:10009000CF010008CF010008CF010008CF01000800
:1000A000CF010008CF010008CF010008CF010008F0
:1000B000CF010008CF010008CF010008CF010008E0
:1000C000CF010008CF010008CF01000895130008F8
:1000D000CF010008CF010008CF010008CF010008C0
:1000E000CF010008CF010008CF01000800F002F89E
:1000F00000F050F814A696E8000CB244B344DA4578
:1001000001D100F047F8BAE80F000FA696E83000DA
:10011000A5EB040504EB0607AAEB0704A7F101070A
:100120004FEA15154FEA3414A4F10104AC4201D38F
:1001300000F030F813F0010F18BFFB1A43F0010371
:1001400000F001F8DBE718475017000070170000B7
:10015000103A24BF78C878C1FAD8520724BF30C8F3
:1001600030C144BF04680C60704700007047000055
:100170000023002400250026103A28BF78C1FBD8B0
:10018000520728BF30C148BF0B6070471FB51FBD65
:1001900010B510BD00F058F81146FFF7F7FF01F059
:1001A000F3FA00F076F803B4FFF7F2FF03BC00F0B7
:1001B0007DF800000948804709480047FEE7FEE750
:1001C000FEE7FEE7FEE7FEE7FEE7FEE7FEE7FEE707
:1001D00004480549054A064B70470000811700088E
:1001E000ED00000878010020780700207803002047
:1001F000780300204FF0000200B51346944696465F
:10020000203922BFA0E80C50A0E80C50B1F1200129
:10021000BFF4F7AF090728BFA0E80C5048BF0CC0D7
:100220005DF804EB890028BF40F8042B08BF704735
:1002300048BF20F8022B11F0804F18BF00F8012BA7
:100240007047704770477047754600F02BF8AE4610
:1002500005006946534620F00700854618B020B5D2
:10026000FFF7B6FFBDE820404FF000064FF0000753
:100270004FF000084FF0000BAC46ACE8C009ACE80A
:10028000C009ACE8C009ACE8C00921F007018D46FF
:10029000704710B50446AFF300802046BDE810401B
:1002A000FFF781BF00487047100000200149182067
:1002B000ABBEFEE72600020070470000FEE700002C
:1002C00040F2E800C2F2000000F06AB840F22C10E0
:1002D000C2F2000000F064B870470000EFF3108035
:1002E00072B600BFFEE7000090F82110022923D16A
:1002F000026840F2040C1168C4F2020C21F00E01F5
:10030000116013682F21C4F202018A4223F0010315
:10031000136015DD3023C4F202039A421CD044233B
:10032000C4F202039A421BD05823C4F202039A4239
:100330001CD14FF4803321E00421816301207047F8
:100340000823C4F202039A420ED01C23C4F2020313
:100350009A420BD1102311E04FF480730EE000BFDE
:100360004FF480530AE000BF012307E00CF168015D
:100370004FF080738A4208BF4FF480130121CCF8FC
:10038000003080F82110416B0022002980F82020E5
:1003900004BF0020704780B58847002080BD000062
:1003A00010B5D0E90FCE0168DCF800300A6823FAF6
:1003B0000EF35C072AD512F0040427D00A689206CF
:1003C00003D40A6822F004020A602F22C4F2020257
:1003D000914240F20402C4F202025BDD3023C4F217
:1003E0000203994272D04423C4F20203994273D0AB
:1003F0005823C4F20203994240F07A804FF48023DC
:100400001360C16A002940F098806FE09C0727D5EF
:1004100012F0020424D00A68920606D40A6822F078
:100420000A020A60012280F821202F22C4F202026F
:10043000914240F20402C4F202023BDD3023C4F2D6
:100440000203994260D04423C4F2020399425FD070
:100450005823C4F20203994260D14FF4003365E09F
:100460001B0743D512F0080208BF10BD0A6822F02E
:100470000E020A60012101FA0EF2CCF80420816319
:1004800080F82110016B0022002980F8202054D12F
:100490002CE000BF0823C4F20203994222D01C239F
:1004A000C4F20203994223D140231360C16A002998
:1004B00043D11BE00823C4F2020399422CD01C2331
:1004C000C4F20203994229D120232FE04FF4806324
:1004D0001360C16A89BB09E04FF480431360C16AAD
:1004E00059BB03E004231360C16A31BB10BD00BFD8
:1004F00002F168044FF08063A14208BF4FF480030B
:100500001360C16AC9B9F1E74FF400730EE000BF90
:100510004FF400530AE000BF022307E002F1680431
:100520004FF00073A14208BF4FF400131360816ABB
:100530000022002980F82020D8D0BDE810400847CC
:10054000014600284FF0010008BF70472DE9F04335
:10055000D1F800C04FF6F873CBF6FD734CF6CD42E0
:100560006344CCF6CC42A3FB02236FF0030202EA01
:1005700093020023C4F2020301F10C08C1E90F3217
:100580000222D1E9019E98E8F00181F82120DCF8EF
:10059000002043F6F0739A4342EA090242EA0E024F
:1005A00022432A4332433A4342EA0802CCF800206D
:1005B00000228A6381F8210081F820200020BDE814
:1005C000F04370472DE9F04F82B00E68002E00F026
:1005D000FD8041F20042C4F20102042340F2004EC9
:1005E000904208BF03234FF6FF7CC4F2010E009334
:1005F00000240123C1F2100C4FF0000A4FF0000953
:100600004BE000BF41F20002C4F20102009F9042A1
:1006100008BF022704F00C030F229A402BEA0202C3
:1006200007FA03F34FEA9A051A4346F825204E6865
:1006300040F20C45F202DEF8082054BF22EA08021C
:1006400042EA0802C4F20105CEF808202A68B30283
:1006500054BF22EA080242EA08022A60B303DEF825
:10066000042054BF22EA080242EA0802F303CEF84B
:100670000420DEF800204FF0010354BF22EA0802F4
:1006800042EA0802CEF800200E680AF1010A36FAA2
:100690000AF204F1040400F0998003FA0AFB16EA56
:1006A0000B08F1D04E68664512DC122E56D8DFE8F2
:1006B00006F0350B4D49555555555555555555551C
:1006C00055555545510000BFD1F80C9046E000BF8C
:1006D0004FF6FF72C1F2210296420FDC0022C1F2F6
:1006E000110296421AD00022C1F21202964215D08F
:1006F0000022C1F22102964210D02FE00022C1F266
:10070000220296420AD00022C1F23102964205D05E
:100710000022C1F23202964220D100BF8A684AB15B
:10072000012A14BFC0F814B0C0F810B04FF0080987
:1007300014E000BF4FF0040910E000BFCA6802F1E6
:1007400004090BE04FF0000908E000BFCA6802F19D
:10075000080903E0CA6802F10C0900BF02462646F8
:10076000B8F5807F24BF0432203E17680F25B540BE
:1007700027EA050509FA06F635431560CA79D20657
:100780007FF582AF41F21803C4F202031A68AEF596
:100790007E7642F001021A601A6802F001020192AC
:1007A000019A2AF0030256F802B040F60002C4F2A1
:1007B0000102904208D040F60042C4F20102904289
:1007C0007FF420AF012725E7002723E702B0BDE82B
:1007D000F08F000040F27010C2F200000068704715
:1007E00040F2000040F27011C2F20000C2F20001BB
:1007F00000780A68104408607047000080B542F233
:100800000000C4F20200016841F010010160032001
:1008100000F08CF80F2000F005F800F027F8002019
:1008200080BD000070B540F20006C2F2000640F242
:1008300008013278C2F200014FF47A730968B3FB01
:10084000F2F20446B1FBF2F1084600F085FD0F2CF0
:100850004FF0010508D838B94FF0FF30214600228B
:10086000002500F037F87460284670BD82B041F270
:100870001800C4F202000168022241F00101016087
:10088000016801F0010101910199416841F0805135
:100890004160406800F08050009000980420C4F24D
:1008A0000100016862F31A61016002B07047000044
:1008B000002848BF704700F01F01012202FA01F131
:1008C0001C2202EAD0004EF20012CEF20002815049
:1008D0007047000010B54EF60C5CCEF2000CDCF850
:1008E0000030C3F3022E8EF00704042C28BF04242A
:1008F000BEF103034FF0FF3E0EFA04F438BF0023AD
:10090000A14399400EFA03F39A43114300F00F02FA
:1009100000F160430901043A03F56443624400288E
:1009200048BF02F10C03197010BD00004EF60C51C7
:10093000CEF200010A684FF6FF031A4060F30A2264
:1009400042F0806040F0FD7008607047002804BFEE
:10095000012070472DE9F04381B042F20008C4F253
:1009600002080446D8F800000D4600F0070088424F
:100970000CD2D8F8000020F007002843C8F8000087
:10098000D8F8000000F00700A8426CD1206841F2BE
:1009900004098107C4F2020917D5410705D5D9F822
:1009A000001041F4E061C9F80010010705D5D9F83D
:1009B000001041F46051C9F80010D9F80010A26885
:1009C00021F0F0011143C9F80010C00742D1D8F856
:1009D000000000F00700A8420CD9D8F8000020F071
:1009E00007002843C8F80000D8F8000000F007000E
:1009F000A84238D12068410707D5D9F80010E2682D
:100A000021F4E0611143C9F80010000708D5D9F8B6
:100A10000000216920F4605040EAC100C9F80000DC
:100A2000D9F8002002F00C00082841F20020C0F2A2
:100A30007A004DD141F68803C2F38341C0F600032A
:100A4000595CD20338D440F60010C0F23D00484350
:100A50003EE000BF606859F8041C022808D0012855
:100A600026D1890306D4012001B0BDE8F08300BF80
:100A70008901F8D5D9F8001021F003010843C9F81D
:100A80000000FFF7A7FE064641F28837D9F80000BC
:100A9000616800F00C00B0EB810F98D0FFF79AFE70
:100AA000801BB842F2D9032001B0BDE8F08300BF3B
:100AB0008907D8D5DEE700BFD9F8002041F68603C4
:100AC000C2F34042C0F600039A5C4843B0FBF2F028
:100AD000D9F8001041F67602C1F30311C0F6000206
:100AE000515C40F2080220FA01F140F20400C2F227
:100AF00000000068C2F200021160FFF793FE0020C0
:100B000001B0BDE8F0830000002804BF0120704759
:100B10002DE9F04182B00446007841F20006C0079A
:100B2000C4F202060CD0706800F00C00042840F0FB
:100B300081803068800303D56068002800F046811A
:100B4000207880071BD5706810F00C0F09D07068F2
:100B500000F00C00082840F087807068C00300F1A6
:100B600083803068800703D52069012840F02E81FA
:100B70003068616920F0F80040EAC10030602078F8
:100B8000000713D4207840072CD4E569002D00F02D
:100B90001881706800F00C00082840F0A780012D33
:100BA00040F00481012002B0BDE8F081A069002876
:100BB00000F084800020C4F242200121C0F880149B
:100BC000FFF708FE054600BF706A800700F1B2809B
:100BD000FFF700FE401B0228F6D9032002B0BDE853
:100BE000F08100BFF0695FEAC00808D4F06940F006
:100BF0008050F061F06900F080500090009847F25A
:100C00000007C4F200073868C00549D4386840F4CA
:100C100080703860FFF7DEFD054600BF3868C0050C
:100C20003ED4FFF7D7FD401B6428F7D9032002B05C
:100C3000BDE8F081706800F00C00082803D17068EE
:100C4000C0033FF576AF61683068002900F00C8181
:100C5000B1F5A02F00F00081B1F5803F40F01A817E
:100C600040F480301CE100BF2069002840F2000001
:100C7000C4F2422000F0888001210160FFF7AAFD44
:100C8000054600BF306880073FF572AFFFF7A2FD51
:100C9000401B0228F6D9032002B0BDE8F08100BF56
:100CA000E168306A002900F09D80052900F09280FB
:100CB000012940F0AF8040F00100B1E00020C4F213
:100CC00042200021C0F88014FFF784FD054600BFD4
:100CD000706A80077FF556AFFFF77CFD401B022846
:100CE000F6D9032002B0BDE8F08100BF0027C4F2AE
:100CF000422700203866FFF76DFD022D05460DD115
:100D00003068800140F1DE80FFF764FD401B02285F
:100D10004FF00300F4D902B0BDE8F08130688001E3
:100D20004FD5FFF757FD401B02284FF00300F5D9C0
:100D3000F1E700BF40F20800C2F20000006844F68C
:100D4000D351C1F26201A0FB0101480A019000BF2A
:100D500000BF0198411E002801913FF413AF00BF6E
:100D60000198411E002801913FF40CAF00BF01988B
:100D7000411E002801913FF405AF00BF0198411EBC
:100D800000280191E4D1FDE600210160FFF722FD7A
:100D9000054600BF306880077FF5F1AEFFF71AFD0A
:100DA000401B02284FF00300F4D9B4E77068216AB1
:100DB00000F480328A4209D1616A00F470108842DE
:100DC00004D1002002B0BDE8F08100BF012002B0D4
:100DD000BDE8F08140F004003062306A40F001006C
:100DE0001EE000BF20F001003062306A20F00400F5
:100DF0003062FFF7EFFC054641F28837306A800722
:100E000020D5FFF7E7FC401BB8424FF00300F5D9AF
:100E100081E700BF20F001003062306A20F004005A
:100E20003062FFF7D7FC054641F28837306A800709
:100E300008D4FFF7CFFC401BB842F7D9032002B01B
:100E4000BDE8F081B8F1000F3FF59FAEF06920F0EA
:100E50008050F06199E600BF40F480203060306837
:100E600040F480301CE000BF20F4803030603068F7
:100E700020F480203060FFF7ADFC05463068800329
:100E80007FF55EAEFFF7A6FC401B64284FF0030021
:100E9000F4D940E720F480303060306820F48020BE
:100EA0003060FFF797FC0546306880033FF548AE99
:100EB000FFF790FC401B6428F6D9032002B0BDE880
:100EC000F08100BF206AB0F5803F05D17168A2684B
:100ED00021F40031114371607168626A21F4741168
:100EE00011430843706001203866FFF773FC044625
:100EF000306880013FF565AFFFF76CFC001B0228EE
:100F00004FF00300F4D906E770470000B0B584B095
:100F100001684A688B6803F04105012D08D112F081
:100F2000400505D0016C04B0BDE8B040084700BFE3
:100F30009D0707D512F0800504D0416C04B0BDE8D0
:100F4000B040084713F0600F18BF12F0200501D120
:100F500004B0B0BD5D0618D590F85150032D09D1ED
:100F600000200290C868029088680290029804B03D
:100F7000B0BD00BF456D45F00405456500250395EE
:100F8000CD6803958D680395039D9B060CD5436D35
:100F900043F001034365002301938B6801930B68C1
:100FA00023F040030B60019B436D002BD0D04B68B6
:100FB000920723F0E0034B604FF0010380F85130BB
:100FC00026D04A6841F20D6422F003024A60C16CE7
:100FD000C0F6000459B1054608464C63FFF784F992
:100FE0000146284619B1416D41F040014165816CCF
:100FF0000029ADD04C6304460846FFF775F9002878
:10100000A6D0606D40F04000606504B0B0BD00BF88
:1010100004B0BDE8B040FFF777BF000070B528B15D
:10102000416A29B100210161142106E0012070BD4F
:101030004168B1F5827F02D01C2100224250002677
:10104000866290F8511029B980F85060054600F08A
:1010500039F82846022180F8511090E82E0002F459
:1010600082720C6803F4044324F040040C601A44B8
:1010700005F4006305691A4405F0020345691A4442
:1010800005F001038569C4691A4405F400731A4424
:1010900004F03803046A1A4404F08003846A1A4393
:1010A00004F400531A430A60042202EA15424A601B
:1010B000CA6922F40062CA610121466580F85110B4
:1010C000304670BD2DE9F04186B040F6000504467B
:1010D000C4F20105006805F52051002788420597F4
:1010E000CDE90377029703D006B0BDE8F08100BFD9
:1010F00041F21800C4F20200016802AE41F48051CE
:101100000160016840F21C0801F4805101910199CD
:101110000168C4F2020841F0040101600068314630
:1011200000F0040001900198B020CDE902072846A4
:101130000497FFF747FA4020029002200390032013
:10114000059028463146FFF73DFA40F2E805C2F225
:10115000000580262846C5E90087C5E90276C5E96D
:101160000477C5E90677FFF7EBF9002818BFFFF70A
:10117000B5F8E5646C6240F22C1508F11400C2F277
:1011800000051021002285E8470005F110004FF40A
:10119000806320278CC02846EA61FFF7D1F9002838
:1011A00018BFFFF79BF8232000210022A5646C6282
:1011B000FFF790FB2320FFF77BFB06B0BDE8F08133
:1011C00090F85130012B1CBF02207047B0B5D0F809
:1011D00008E0BEF1000F49D14368B3F5827F45D1E5
:1011E000042380F8513090F85130042B01D0012BAA
:1011F0004BD100294FF0010318BF002A3CD0844690
:101200001CF8503F012B40D0012380F8503090F85B
:10121000513041F2D13E042B1CBF052380F85130E0
:101220000023436501638286C28681638287C28709
:10123000C26841F2A133C0F6000EC0F60003002AD6
:1012400041F20542016808BF734641F2354EC0F6CF
:101250000002C0F6000E08BF7246C0E910320868EE
:1012600040064FF0E0003FD542E000BF00294FF0BC
:10127000010318BF002A03D1BDE8B04018467047EB
:1012800084461CF8503F012B04D10223BDE8B04036
:1012900018467047042380F851300023436581636A
:1012A0008287C28703638386C386C26841F2196559
:1012B000016841F23964C0F60005002AC0F6000456
:1012C00008BF2546BEF5004FC0E9105307D1086896
:1012D00020F040000860086820F48040086008683A
:1012E00040064FF0600003D40A6842F040020A60F2
:1012F00000238CF800304A6810434860BDE8B040D5
:1013000018467047006843F20001C4F201018842A8
:1013100018BF704710B540F27004C2F2000404F127
:10132000200021460122FFF74BFF2078712805D1CC
:1013300000206070BDE81040704700BF61786218FF
:101340009070481C1D2988BF00206070BDE81040C7
:101350007047000070470000411E0020B0EB116F85
:101360001CBF012070474EF21002CEF20002516005
:101370004EF62351CEF20001F0230B70072190604E
:1013800011607047FEE70000FEE70000FEE7000086
:101390007047000040F29000C2F20000FFF7B6BDB7
:1013A0000168826BCB6822F8023B8263C28F013AEC
:1013B000C287C28F002A18BF70474A6822F04002D5
:1013C0004A60C18E002908BF00F04EB87047000087
:1013D0000168097B826B1170816B01318163C18F60
:1013E0000139C187C18F002918BF704701684A6859
:1013F00022F060024A60C18E002908BF00F034B8B4
:1014000070470000026B016832F8023BCB60026358
:10141000C28E013AC286C28E002A18BF70474A683F
:1014200022F080024A60C18F002908BF00F01CB87A
:1014300070470000016B026809781173016B01317C
:101440000163C18E0139C186C18E002918BF704762
:1014500001684A6822F080024A60C18F002908BFF3
:1014600000F002B870470000B0B584B040F2080147
:10147000C2F20001096841F6F112C0F27652A1FBF6
:1014800002120446500A642148430390FFF7A2F970
:10149000216805464A6822F0200048600398F8B1A8
:1014A000039801380390886880071DD40398B8B169
:1014B0000398013803908868800715D4039878B1A1
:1014C000039801380390886880070DD4039838B1D9
:1014D00003980138039088688007DFD504E000BFD7
:1014E000606D40F0200060652046022101226423E7
:1014F000009500F0B1F838B920468021002264231D
:10150000009500F0A9F838B1606D40F020006065EA
:10151000606D40F020006065A06858B1606DA0B1BA
:101520000121204684F8511004B0BDE8B040FFF717
:10153000EBBC00BF002002902068C1680291806867
:1015400002900298606D0028EAD194F851000121C0
:101550000428204684F8511004D104B0BDE8B040FE
:10156000FFF7D0BE04B0BDE8B040FFF7F3BE000007
:1015700010B582B004460068416821F06001416006
:10158000FFF728F961688446B1F5827F12D1A0681F
:10159000B0F5004F02D0B0F5806F0BD12168B0F5E7
:1015A000806F0A6822F040020A6003D120460121C0
:1015B00002E000BF2046802100226423CDF800C055
:1015C00000F04AF838B1606D40F020006065606D51
:1015D00040F020006065A06838B9002001902068C4
:1015E000C1680191806801900198012084F8510040
:1015F000606D28B1204602B0BDE81040FFF784BC02
:10160000204602B0BDE81040FFF77CBE406A0021D2
:10161000C187C186FFF778BC0168826BC96822F870
:10162000021B8263C18F0139C187C18F002918BF96
:101630007047FFF79DBF00000168097B826B117046
:10164000816B01318163C18F0139C187C18F00294D
:1016500018BF7047FFF78CBF2DE9F04381B0089C9D
:10166000984615460E468146FFF7B4F8201A00EB5F
:101670000804FFF7AFF840F20801C2F20001096860
:10168000C1F3CB3161430091D9F800108A68324030
:10169000921BB2FA82F25209AA423DD0074618F1D3
:1016A000010031D0FFF796F8C01BA04238D2009855
:1016B00000990028A1F101010091D9F80010896872
:1016C00008BF044601EA0600801BB0FA80F040091A
:1016D000A842E7D120E000BF88683040801BB0FA04
:1016E00080F04009A84217D088683040801BB0FACB
:1016F00080F04009A8420FD088683040801BB0FAC3
:1017000080F04009A84207D088683040801BB0FABA
:1017100080F04009A842DFD1002001B0BDE8F0838D
:10172000D9E900014268B1F5827F22F0E00242600F
:101730000BD1D9F80810B1F5004F02D0B1F5806F88
:1017400003D1016821F040010160D9F82810B1F5FA
:10175000005F07D1016821F400510160016841F484
:1017600000510160012089F85100002089F85000E3
:10177000032001B0BDE8F08370470000FFF730B8E8
:1017800070470000FEE7000090B0FFF737F806ACA6
:10179000201D2421FEF72EFD0220069001200A9034
:1017A00010200B90002520460D95FFF7ADF928B1CC
:1017B000EFF3108072B600BFFEE700BF0F20CDE947
:1017C000010501A80021CDE903550595FFF7BEF8F5
:1017D00020B1EFF3108072B6FEE700BF41F21400B3
:1017E000C4F202004168002241F0040141604168F6
:1017F000002501F0040106910699016841F00101FC
:1018000001600068002100F00100069006980C209D
:10181000FFF760F80C20FFF74BF80D2000210022A5
:10182000FFF758F80D20FFF743F840F27004C2F2BA
:10183000000443F20001C4F20101204640F8201FD9
:101840000A21C0E90155C0E90355C0E90555C0E9C1
:101850000855C0E90A51FFF7E1FB28B1EFF310800A
:1018600072B600BFFEE700BF04F12000214601224E
:10187000FFF7A6FCFEE700000000000000000102E8
:101880000304060708090102020304050607080904
:101890000A0B0C0D0E0F1010B818000800000020E5
:1018A0001000000050010008C818000810000020B7
:1018B000680700007001000801000000100000002F
:0818C00000127A000000000094
:04000005080000ED02
:00000001FF
